{
  "contractName": "Lottery",
  "abi": [
    {
      "inputs": [],
      "stateMutability": "nonpayable",
      "type": "constructor"
    },
    {
      "inputs": [],
      "name": "lastWinner",
      "outputs": [
        {
          "internalType": "address",
          "name": "",
          "type": "address"
        }
      ],
      "stateMutability": "view",
      "type": "function",
      "constant": true
    },
    {
      "inputs": [],
      "name": "manager",
      "outputs": [
        {
          "internalType": "address",
          "name": "",
          "type": "address"
        }
      ],
      "stateMutability": "view",
      "type": "function",
      "constant": true
    },
    {
      "inputs": [
        {
          "internalType": "uint256",
          "name": "",
          "type": "uint256"
        }
      ],
      "name": "players",
      "outputs": [
        {
          "internalType": "address",
          "name": "",
          "type": "address"
        }
      ],
      "stateMutability": "view",
      "type": "function",
      "constant": true
    },
    {
      "inputs": [],
      "name": "enter",
      "outputs": [],
      "stateMutability": "payable",
      "type": "function",
      "payable": true
    },
    {
      "inputs": [],
      "name": "getPlayers",
      "outputs": [
        {
          "internalType": "address[]",
          "name": "",
          "type": "address[]"
        }
      ],
      "stateMutability": "view",
      "type": "function",
      "constant": true
    },
    {
      "inputs": [],
      "name": "pickWinner",
      "outputs": [],
      "stateMutability": "nonpayable",
      "type": "function"
    }
  ],
  "bytecode": "0x608060405234801561001057600080fd5b50336000806101000a81548173ffffffffffffffffffffffffffffffffffffffff021916908373ffffffffffffffffffffffffffffffffffffffff160217905550610945806100606000396000f3fe6080604052600436106100555760003560e01c8063481c6a751461005a5780635d495aea146100855780638b5b9ccc1461009c578063e97dcb62146100c7578063f71d96cb146100d1578063fe1881841461010e575b600080fd5b34801561006657600080fd5b5061006f610139565b60405161007c9190610587565b60405180910390f35b34801561009157600080fd5b5061009a61015d565b005b3480156100a857600080fd5b506100b1610300565b6040516100be9190610660565b60405180910390f35b6100cf61038e565b005b3480156100dd57600080fd5b506100f860048036038101906100f391906106bd565b610406565b6040516101059190610587565b60405180910390f35b34801561011a57600080fd5b50610123610445565b6040516101309190610587565b60405180910390f35b60008054906101000a900473ffffffffffffffffffffffffffffffffffffffff1681565b60008054906101000a900473ffffffffffffffffffffffffffffffffffffffff1673ffffffffffffffffffffffffffffffffffffffff163373ffffffffffffffffffffffffffffffffffffffff16146101b557600080fd5b60006001805490506101c561046b565b6101cf9190610719565b90506000600182815481106101e7576101e661074a565b5b9060005260206000200160009054906101000a900473ffffffffffffffffffffffffffffffffffffffff1690508073ffffffffffffffffffffffffffffffffffffffff166108fc479081150290604051600060405180830381858888f1935050505015801561025a573d6000803e3d6000fd5b5080600260006101000a81548173ffffffffffffffffffffffffffffffffffffffff021916908373ffffffffffffffffffffffffffffffffffffffff160217905550600067ffffffffffffffff8111156102b7576102b6610779565b5b6040519080825280602002602001820160405280156102e55781602001602082028036833780820191505090505b50600190805190602001906102fb92919061049f565b505050565b6060600180548060200260200160405190810160405280929190818152602001828054801561038457602002820191906000526020600020905b8160009054906101000a900473ffffffffffffffffffffffffffffffffffffffff1673ffffffffffffffffffffffffffffffffffffffff168152602001906001019080831161033a575b5050505050905090565b662386f26fc1000034116103a157600080fd5b6001339080600181540180825580915050600190039060005260206000200160009091909190916101000a81548173ffffffffffffffffffffffffffffffffffffffff021916908373ffffffffffffffffffffffffffffffffffffffff160217905550565b6001818154811061041657600080fd5b906000526020600020016000915054906101000a900473ffffffffffffffffffffffffffffffffffffffff1681565b600260009054906101000a900473ffffffffffffffffffffffffffffffffffffffff1681565b60004260016040516020016104819291906108e7565b6040516020818303038152906040528051906020012060001c905090565b828054828255906000526020600020908101928215610518579160200282015b828111156105175782518260006101000a81548173ffffffffffffffffffffffffffffffffffffffff021916908373ffffffffffffffffffffffffffffffffffffffff160217905550916020019190600101906104bf565b5b5090506105259190610529565b5090565b5b8082111561054257600081600090555060010161052a565b5090565b600073ffffffffffffffffffffffffffffffffffffffff82169050919050565b600061057182610546565b9050919050565b61058181610566565b82525050565b600060208201905061059c6000830184610578565b92915050565b600081519050919050565b600082825260208201905092915050565b6000819050602082019050919050565b6105d781610566565b82525050565b60006105e983836105ce565b60208301905092915050565b6000602082019050919050565b600061060d826105a2565b61061781856105ad565b9350610622836105be565b8060005b8381101561065357815161063a88826105dd565b9750610645836105f5565b925050600181019050610626565b5085935050505092915050565b6000602082019050818103600083015261067a8184610602565b905092915050565b600080fd5b6000819050919050565b61069a81610687565b81146106a557600080fd5b50565b6000813590506106b781610691565b92915050565b6000602082840312156106d3576106d2610682565b5b60006106e1848285016106a8565b91505092915050565b7f4e487b7100000000000000000000000000000000000000000000000000000000600052601260045260246000fd5b600061072482610687565b915061072f83610687565b92508261073f5761073e6106ea565b5b828206905092915050565b7f4e487b7100000000000000000000000000000000000000000000000000000000600052603260045260246000fd5b7f4e487b7100000000000000000000000000000000000000000000000000000000600052604160045260246000fd5b6000819050919050565b6107c36107be82610687565b6107a8565b82525050565b600081549050919050565b600081905092915050565b60008190508160005260206000209050919050565b6107fd81610566565b82525050565b600061080f83836107f4565b60208301905092915050565b60008160001c9050919050565b600073ffffffffffffffffffffffffffffffffffffffff82169050919050565b600061085b6108568361081b565b610828565b9050919050565b600061086e8254610848565b9050919050565b6000600182019050919050565b600061088d826107c9565b61089781856107d4565b93506108a2836107df565b8060005b838110156108da576108b782610862565b6108c18882610803565b97506108cc83610875565b9250506001810190506108a6565b5085935050505092915050565b60006108f382856107b2565b6020820191506109038284610882565b9150819050939250505056fea26469706673582212206c2b3ff7543697832b6a1a411f661db785f16fb6222748a78b8bc3df8e094bf364736f6c63430008130033",
  "immutableReferences": {},
  "source": "// SPDX-License-Identifier: MIT\r\npragma solidity ^0.8.9;\r\n\r\ncontract Lottery {\r\n    address public manager;\r\n    address[] public players;\r\n    address public lastWinner;\r\n\r\n    constructor() {\r\n        manager = msg.sender;\r\n    }\r\n\r\n    function enter() public payable {\r\n        require(msg.value > 0.01 ether);\r\n        players.push(msg.sender);\r\n    }\r\n\r\n    function getPlayers() public view returns (address[] memory) {\r\n        return players;\r\n    }\r\n\r\n    function _random() private view returns (uint256) {\r\n        return uint256(keccak256(abi.encodePacked(block.timestamp, players)));\r\n    }\r\n\r\n    function pickWinner() public onlyManager {\r\n        uint index = _random() % players.length;\r\n        address payable winner = payable(players[index]);\r\n        winner.transfer(address(this).balance);\r\n        lastWinner = winner;\r\n        players = new address payable[](0);\r\n    }\r\n\r\n    modifier onlyManager() {\r\n        require(msg.sender == manager);\r\n        _;\r\n    }\r\n}",
  "sourcePath": "D:\\Belajar\\Coding\\Blockchain\\courses\\section 4\\lottery-react\\contracts\\Lottery.sol",
  "compiler": {
    "name": "solc",
    "version": "0.8.19+commit.7dd6d404.Emscripten.clang"
  },
  "schemaVersion": "3.4.13",
  "updatedAt": "2023-06-01T06:51:29.014Z",
  "networkType": "ethereum",
  "devdoc": {
    "kind": "dev",
    "methods": {},
    "version": 1
  },
  "userdoc": {
    "kind": "user",
    "methods": {},
    "version": 1
  }
}